:020000040800F2
:10000000700E00202D02000835020008370200089B
:10001000390200083B0200083D0200080000000011
:100020000000000000000000000000003F02000887
:100030004102000800000000430200088913000884
:10004000470200084702000847020008470200086C
:10005000470200084702000847020008470200085C
:10006000470200084702000847020008470200084C
:10007000470200084702000847020008470200083C
:10008000470200084702000847020008470200082C
:10009000470200084702000847020008470200081C
:1000A000470200084702000847020008470200080C
:1000B00047020008470200084702000847020008FC
:1000C00047020008470200084702000847020008EC
:1000D00047020008470200084702000847020008DC
:1000E000470200084702000847020008000000001D
:1000F0000000000000000000000000000000000000
:10010000000000000000000047020008470200084D
:10011000470200084702000847020008470200089B
:10012000470200084702000847020008470200088B
:10013000470200084702000847020008470200087B
:10014000470200084702000847020008470200086B
:1001500000F002F800F05AF80AA090E8000C82447F
:100160008344AAF10107DA4501D100F04FF8AFF25C
:10017000090EBAE80F0013F0010F18BFFB1A43F085
:100180000103184700290000202900000A444FF00D
:10019000000C10F8013B13F0070408BF10F8014BE6
:1001A0001D1108BF10F8015B641E05D010F8016B2B
:1001B000641E01F8016BF9D113F0080F1EBF10F88F
:1001C000014BAD1C0C1B09D16D1E58BF01F801CBB2
:1001D000FAD505E014F8016B01F8016B6D1EF9D535
:1001E0009142D6D37047000000230024002500264A
:1001F000103A28BF78C1FBD8520728BF30C148BF8A
:100200000B6070471FB51FBD10B510BD00F031F871
:100210001146FFF7F7FF01F009FF00F04FF803B4B4
:10022000FFF7F2FF03BC00F057F8000009488047D1
:1002300009480047FEE7FEE7FEE7FEE7FEE7FEE7C8
:10024000FEE7FEE7FEE7FEE704480549054A064BE0
:1002500070470000A5130008510100087008002035
:10026000700E0020700A0020700A0020704770474E
:100270007047754600F02CF8AE46050069465346B7
:1002800020F00700854618B020B5FFF7DDFFBDE878
:1002900020404FF000064FF000074FF000084FF0ED
:1002A000000B21F00701AC46ACE8C009ACE8C0097E
:1002B000ACE8C009ACE8C0098D46704710B50446EB
:1002C000AFF300802046BDE81040FFF7A8BF000054
:1002D000004870471008002001491820ABBEFEE717
:1002E00026000200704700000021054A1154012138
:1002F0008140044A12788A4302490A70704700001C
:100300000C0000200B0000200FB438B50C9C64B921
:100310000A980090BDF81630BDF81420BDF81210F0
:10032000BDF8100001F0BCFE0BE009980090BDF88C
:100330001630BDF81420BDF81210BDF8100001F001
:10034000AFFE38BC5DF814FB70B504460D462A209C
:1003500000F010F8200A00F05FF8E0B200F05CF85E
:100360002B2000F007F8280A00F056F8E8B200F059
:1003700053F870BD10B50446224840682249084031
:100380002049486008464068204908431D494860A4
:10039000002289141B4800F07CF900224FF4806190
:1003A000184800F076F900224FF48071154800F0EB
:1003B00070F901229102134800F06BF900224FF40A
:1003C0008061104800F065F90E4840680E49084009
:1003D0000C494860084640680D490843094948608F
:1003E00021460C4800F007FE00BF8021094800F0BC
:1003F000F9FD0028F9D101221102024800F049F963
:1004000010BD000000100140FFF0F0FF00030300EA
:10041000000B0B00003C004010B504462248406829
:10042000224908402049486008464068204908435E
:100430001D494860012289141B4800F02AF9002256
:100440004FF48061184800F024F900224FF48071C5
:10045000154800F01EF901229102134800F019F925
:1004600000224FF48061104800F013F90E484068F4
:100470000E4908400C494860084640680D49084349
:100480000949486021460C4800F0B5FD00BF8021B5
:10049000094800F0A7FD0028F9D101221102024805
:1004A00000F0F7F810BD000000100140FFF0F0FF71
:1004B00000030300000B0B00003C004010B5044695
:1004C000C4F30720FFF7A8FFE0B2FFF7A5FF10BDB8
:1004D0002DE9F041024600250026002000230024DB
:1004E000002791F803C00CF00F0591F803C00CF041
:1004F000100CBCF1000F03D091F802C04CEA0505C6
:1005000091F800C0BCF1000F31D0146800202BE03E
:100510004FF0010C0CFA00F3B1F800C00CEA03062E
:100520009E4220D183004FF00F0C0CFA03F7BC431E
:1005300005FA03FC4CEA040491F803C0BCF1280F4F
:1005400006D14FF0010C0CFA00FCC2F814C00AE00E
:1005500091F803C0BCF1480F05D14FF0010C0CFA23
:1005600000FCC2F810C0401C0828D1D31460B1F8B8
:1005700000C0BCF1FF0F34DD546800202EE000F114
:10058000080C4FF0010808FA0CF3B1F800C00CEAAF
:1005900003069E4221D183004FF00F0C0CFA03F7A3
:1005A000BC4305FA03FC4CEA040491F803C0BCF117
:1005B000280F05D100F1080C08FA0CF8C2F81480D5
:1005C00091F803C0BCF1480F07D100F1080C4FF0BF
:1005D000010808FA0CF8C2F81080401C0828CED395
:1005E0005460BDE8F0810000F0B50A460023002405
:1005F0000021002500F00046B6F1004F02D11D4E4B
:10060000F16901E01B4E7168C0F3034583B200F449
:100610004016B6F5401F08D121F07061154E76687E
:1006200026F07066134F7E6012E000F48016B6F577
:10063000801F06D1032606FA05F4A14341F070613C
:1006400006E0460D360103FA06F6B14341F070614B
:1006500022B1460D360103FA06F6314300F000469A
:10066000B6F1004F02D1034EF16101E0014E71601D
:10067000F0BD0000000001400246002093680B40DE
:100680000BB1012000E0002070474161704701611B
:1006900070470AB1016100E04161704710B508215F
:1006A0000448FFF7E9FF012801D1002010BD012017
:1006B000FCE70000001801402E49896941F004015F
:1006C0002C4A91611146896941F0100191611146EE
:1006D000896941F0200191611146896941F0400129
:1006E00091612549096821F00F01234A11601146E3
:1006F000096841F0040111604FF6FF711F4AD16093
:1007000011460968002111601146096841F08831DD
:1007100011601146496821F4700151601146496821
:1007200041F4800151604FF6FF71154A1160144980
:1007300008390968C1F30B01114A083A11601146E2
:100740000968104A11430E4A083A11600E490968B7
:1007500000210D4A1160114609680C4A11430A4AEA
:100760001160002003E00121094A1154401C0828AF
:10077000F9DB704700100240000801400010014002
:100780000C140140008088880418014066666636B3
:100790000C0000202DE9F041054600240026FFF75B
:1007A0008BFF00F087F8287830286DD027E0285D8F
:1007B000342820D006DC312817D0322817D033282F
:1007C0001BD116E06D280CD0702802D0722814D1ED
:1007D00003E001202D4908700FE004202C49087027
:1007E0000BE001202B49087007E0002605E00126F8
:1007F00003E0022601E0032600BF00BF641C285D61
:100800000028D4D124490E77012000F001FB06F026
:100810000100404221490870002408E006F0010070
:100820001F4908551F4901EB44110E77641C082C21
:10083000F4D300F09FFC00F003FD00F0CBFE1A495A
:10084000481EB0F1807F00D31DE0481E4FF0E0222B
:10085000506150170F22002809DA13074FEA136C72
:10086000124B00F00F073F1F03F807C003E0130708
:100870001F0E0F4B1F5400BF00204FF0E02290616D
:100880000720106100BF00BFBDE8F0810900002013
:10089000080000200A000020CC0000200B000020EF
:1008A0000C0000206C010020B021010018ED00E0D8
:1008B00000E400E010B50E480E49086040F68F10C5
:1008C0000D4908600D480E49086041F6E2200D49C7
:1008D00008600D480D4908600D480E4908600E4833
:1008E0000E49086000F01CF800F0F6F810BD00009A
:1008F00091230600A4040020A8040020AB0DF6F804
:10090000AC040020B004002097260800B4040020A6
:10091000A9417EF8B8040020D2C75C00A0040020E2
:1009200000B587B00121302000F004FB4FF4807047
:10093000ADF8040003208DF8060010208DF80700A4
:1009400001A96048FFF7C4FD8020ADF80400032032
:100950008DF8060010208DF8070001A95A48FFF70E
:10096000B7FD4FF48060ADF8040003208DF8060059
:1009700010208DF8070001A95248FFF7A9FD4FF498
:100980008050ADF8040003208DF8060010208DF88B
:10099000070001A94B48FFF79BFD002280214A4830
:1009A000FFF777FE00224FF480714648FFF771FE93
:1009B00000224FF480614348FFF76BFE00224FF4A2
:1009C00080514048FFF765FE0121112000F0B2FA86
:1009D00001213E48FFF708FE0121C80300F08AFA12
:1009E0004FF4E050ADF8040003208DF80600182005
:1009F0008DF8070001A93348FFF76AFD344800F07D
:100A0000C5FA0020ADF808004FF48270ADF80A0076
:100A10000020ADF80C00ADF80E00ADF810004FF45A
:100A20000070ADF812000020ADF81400ADF816000B
:100A300002A9274800F0E1FA0121254800F09AFABE
:100A40000121402000F076FA4020ADF80400032098
:100A50008DF8060010208DF8070001A91D48FFF74A
:100A600037FD2020ADF8040003208DF8060010208B
:100A70008DF8070001A91748FFF72AFD8020ADF87F
:100A8000040003208DF8060010208DF8070001A94E
:100A90001048FFF71DFD0820ADF8040004208DF874
:100AA000070001A90B48FFF713FD1020ADF8040063
:100AB00004208DF8070001A90648FFF709FD07B0DB
:100AC00000BD000000100140001401400011200092
:100AD000003C00400018014010B50120FFF74AFC1F
:100AE000B248B349086004E0B1480068401EB0490C
:100AF0000860AF4800680028F6D12820FFF73AFCCC
:100B0000CF20FFF737FC0020FFF786FC8320FFF79C
:100B100083FC3020FFF780FCED20FFF72BFC6420E6
:100B2000FFF77AFC0320FFF777FC1220FFF774FC35
:100B30008120FFF771FCE820FFF71CFC8520FFF700
:100B40006BFC0120FFF768FC7920FFF765FCCB20E8
:100B5000FFF710FC3920FFF75FFC2C20FFF75CFC4F
:100B60000020FFF759FC3420FFF756FC0220FFF766
:100B700053FCF720FFF7FEFB2020FFF74DFCEA2097
:100B8000FFF7F8FB0020FFF747FC0020FFF744FCCD
:100B9000C020FFF7EFFB2620FFF73EFCC120FFF748
:100BA000E9FB1120FFF738FCC520FFF7E3FB3520F8
:100BB000FFF732FC3E20FFF72FFCC720FFF7DAFBE0
:100BC000BE20FFF729FC3620FFF7D4FB4820FFF7B3
:100BD00023FC3A20FFF7CEFB5520FFF71DFCB12088
:100BE000FFF7C8FB0020FFF717FC1B20FFF714FCE2
:100BF000F220FFF7BFFB0820FFF70EFC2620FFF7CF
:100C0000B9FB0120FFF708FCE020FFF7B3FB1F2032
:100C1000FFF702FC1A20FFF7FFFB1820FFF7FCFB91
:100C20000A20FFF7F9FB0F20FFF7F6FB0620FFF77E
:100C3000F3FB4520FFF7F0FB8720FFF7EDFB3220A9
:100C4000FFF7EAFB0A20FFF7E7FB0720FFF7E4FBCB
:100C50000220FFF7E1FB0720FFF7DEFB0520FFF78F
:100C6000DBFB0020FFF7D8FBE120FFF783FB002030
:100C7000FFF7D2FB2520FFF7CFFB2720FFF7CCFBA8
:100C80000520FFF7C9FB1020FFF7C6FB0920FFF77F
:100C9000C3FB3A20FFF7C0FB7820FFF7BDFB4D20D8
:100CA000FFF7BAFB0520FFF7B7FB1820FFF7B4FBEF
:100CB0000D20FFF7B1FB3820FFF7AEFB3A20FFF71E
:100CC000ABFB1F20FFF7A8FB2A20FFF753FB0020F8
:100CD000FFF7A2FB0020FFF79FFB0020FFF79CFB24
:100CE000EF20FFF799FB2B20FFF744FB0020FFF7D5
:100CF00093FB0020FFF790FB0120FFF78DFB3F20C7
:100D0000FFF78AFBB720FFF735FB0720FFF784FBCF
:100D1000B620FFF72FFB0A20FFF77EFB8220FFF7AC
:100D20007BFB2720FFF778FB0020FFF775FB1120E6
:100D3000FFF720FB1F481E49086004E01C480068BC
:100D4000401E1B4908601A4800680028F6D12C2074
:100D5000FFF710FB002403E00020FFF7AFFB641C4B
:100D6000B4F5963FF8D32920FFF704FB114810494A
:100D7000086004E00E480068401E0D4908600C48F9
:100D800000680028F6D180210B48FFF780FC0B4853
:100D90000749086004E006480068401E04490860EE
:100DA000034800680028F6D110BD0000C0D401003F
:100DB000C4040020804F12000014014000530700BB
:100DC0000FB4BDF800001049096888421AD8BDF870
:100DD0000000BDF8041008440B490968884211D38B
:100DE000BDF802000949096888420BD8BDF8020025
:100DF000BDF80610084405490968884202D301205D
:100E000004B070470020FBE7000000200400002031
:100E10007CB504462748007F342101EBC000C5B2F1
:100E20002548007818B125482549086002E0254882
:100E300023490860012001F0F3F9002040F2FF731C
:100E40000F22642100901E48006801F069FA00201A
:100E500040F2FF730F229D210090102000F086FFCA
:100E6000012C26D1002040F2FF730F2205210090B3
:100E7000154801F055FA40F2FF700221142305F1E4
:100E80000A02CDE900101946284601F039F8002081
:100E900001F0C6F940F2FF7001F0C8F90BA1002083
:100EA00001F04EF9012001F0BBF94FF6FF7001F09F
:100EB000BDF97CBDCC0000200900002036000020D8
:100EC000480000202400002019000020436C7241DB
:100ED0006C6C202020202020202020436C724C6548
:100EE0006674202020202020202020205265667259
:100EF0006573680029B1064AD2690243044BDA617E
:100F000004E0034AD2698243014BDA617047000072
:100F10000010024029B1064A12690243044B1A61CB
:100F200004E0034A12698243014B1A6170470000D2
:100F30000010024029B1064A92690243044B9A61AB
:100F400004E0034A92698243014B9A6170470000B2
:100F50000010024029B1064AD2680243044BDA600D
:100F600004E0034AD2688243014BDA607047000014
:100F70000010024021B1028842F04002028004E0E9
:100F800002884FF6BF731A400280704710B50446BE
:100F90001148844208D101218014FFF7DBFF0021B2
:100FA000A014FFF7D7FF16E00C48844208D10121B6
:100FB0000014FFF7AFFF00212014FFF7ABFF0AE09A
:100FC0000748844207D10121C013FFF7A3FF002186
:100FD000E013FFF79FFF10BD0030014000380040D4
:100FE000003C00400246002013890B400BB1012059
:100FF00000E0002070478181704710B50022028810
:1010000002F441520B884C8823438C882343CC88BC
:1010100023430C8923434C8923438C892343CC8964
:1010200023431A430280838B4FF2FF742340838350
:101030000B8A038210BD10B500F002F810BD00004D
:101040000CB50020019000903F48006840F48030CB
:101050003D49086000BF3C48006800F40030009043
:101060000198401C0190009818B90198B0F5A06F44
:10107000F1D13548006800F4003010B10120009033
:1010800001E000200090009801285CD12F48006802
:1010900040F010002D4908600846006820F0030069
:1010A00008600846006840F0020008602648406872
:1010B000254948600846406848600846406840F452
:1010C000806048600846C06A214908401E49C862DD
:1010D0000846C06A1F4908431B49C86208460068A1
:1010E00040F08060086000BF1748006800F00060B2
:1010F0000028F9D01448406820F47C101249486058
:101100000846406840F4E81048600846006840F02F
:101110008070086000BF0C48006800F00070002874
:10112000F9D00948406820F00300074948600846A4
:10113000406840F00200486000BF0348406800F08B
:101140000C000828F9D10CBD00100240002002401C
:1011500000F0FEFF440601000121044A11548140C1
:10116000034A12781143024A117070470C000020A4
:101170000B00002038B5002453E02B48007828B13C
:10118000C4F10700294951F8205002E0274850F8DF
:101190002450274901EB44114D80264901EB4411AD
:1011A0004D80254901EB44114D800020224901EB7F
:1011B00044110090498801F114021F4901EB4411C8
:1011C000097F1E4B1B781944C8B240F2FF733C21C3
:1011D00000F0CCFD1948007890B90020154901EBCA
:1011E00044110090498801F11402124901EB4411A5
:1011F00001F1080040F2FF739B2101F091F80FE02C
:1012000000200D4901EB44110090498801F11402BE
:1012100004F10801C8B240F2FF739B2100F0A6FD63
:10122000641C082CA9DB38BD0A0000204C000020FB
:101230006C0200206C0300206C01002008000020DC
:10124000F0B585B06425B9264A48007808B1B925BB
:101250006426002488E0484800EB44100580474895
:1012600000EB4410068000204FF4FC610122424F45
:1012700007EB4417CDE9002102907F88DFF8F8C022
:101280000CEB441CBCF806C007EB0C033A4F07EB11
:1012900044173F88DFF8E0C00CEB441CBCF804C0E6
:1012A00007EB0C02344F07EB44177F88791E324F4F
:1012B00007EB44173F88781E00F056FF00204FF6DA
:1012C000F07101222D4F07EB4417CDE90021029068
:1012D0007F88DFF8A8C00CEB441CBCF806C007EB05
:1012E0000C03264F07EB44173F88DFF890C00CEB48
:1012F000441CBCF804C007EB0C02204F07EB44175A
:101300007F88791E1D4F07EB44173F88781E00F039
:101310002BFF1B48005D0490174800EB441310336B
:101320000FCB8DE80F00144800EB441797E80F002F
:10133000FEF7EAFF1348407B0121A14008400490DA
:101340000E4800EB4413D3E905021969DB69CDE9C6
:101350000223CDE90010094800EB441797E80F007D
:10136000FEF7D2FF601CC4B2082CFFF674AF05B0C4
:10137000F0BD0000090000206C0200206C0300207A
:101380000C0000200018014010B500F023FC0448B8
:10139000006820B102480068401E0149086010BD85
:1013A0001400002010B51648006840F001001449F0
:1013B00008600846406813490840114948600846DB
:1013C0000068114908400E4908600846006820F48A
:1013D000802008600846406820F4FE004860084607
:1013E000006820F0A05008604FF47F008860002063
:1013F000C862FFF720FE4FF000600449086010BD8E
:10140000001002400000FFF0FFFFF6FE08ED00E0D4
:101410002DE9F0410146002200234FF6FF742546D6
:1014200000260027002037E0DFF8A4C05CF820C0C9
:101430006244DFF8A0C05CF820C06344DFF890C0CD
:101440005CF820C0A44504D2DFF884C05CF82040DA
:1014500009E0DFF87CC05CF820C0B44503D9DFF8B0
:1014600070C05CF82060DFF86CC05CF820C0AC4550
:1014700004D2DFF860C05CF8205009E0DFF854C007
:101480005CF820C0BC4503D9DFF848C05CF8207088
:1014900000F1010C0CF0FF008842C5DBA2EB040C4C
:1014A000ACEB0608A1F1020CB8FBFCFCDFF82880CD
:1014B000C8F800C0A3EB050CACEB0708A1F1020CC7
:1014C000B8FBFCFCDFF81480C8F800C0BDE8F08170
:1014D000D804002068060020800400208404002036
:1014E00038B500200090FFF7D9F8002839D0402106
:1014F0001C48FFF7CAF8D02000F03AF88DF8000039
:10150000002000F035F88DF80000902000F030F851
:101510008DF80100002000F02BF88DF8020000206B
:1015200000F026F88DF803009DF8004064019DF856
:10153000010044EAE004C4F30B049DF802506D017D
:101540009DF8030045EAE005C5F30B054021054879
:10155000FFF79DF80448046040F6FF70401B034904
:10156000086038BD00180140780400207C04002089
:1015700070B504460025002626E00122802114488B
:10158000FFF787F804F08000802805D10122202190
:101590000F48FFF77EF804E0002220210C48FFF7F7
:1015A00078F8002280210A48FFF773F86006040EDD
:1015B0006806050E10210648FFF75EF8012801D1E4
:1015C00045F00105701CC6B2082ED6DB284670BD5A
:1015D0000018014070B586B03848407B3849087023
:1015E0000846007837490978484037490870084666
:1015F000007828B3012500241CE0334800782840F7
:10160000B0B12E48407B0121A140084004902F48F2
:1016100000EB4412D2E905131069D2698DE80B0082
:1016200003922A4800EB441696E80F00FEF76CFE82
:101630006D00641C082CE0DB21480078214908700B
:101640002348007A2349097808402349087008464E
:1016500000782249097848402149087008460078F6
:1016600048B30125002420E01D4800782840D0B16F
:101670001748007A1749097808400121A14008401D
:101680000490184800EB4413D3E905211869DB697D
:10169000CDE90213CDE90002124800EB441696E8AA
:1016A0000F00FEF731FE6D00641C082CDCDB0A48DD
:1016B00000780A49087006B070BD000000180140AB
:1016C0006E0400206D0400206F0400206C030020D5
:1016D000001001400B000020710400207004002065
:1016E000720400206C020020F0B585B000F0AAFA68
:1016F0000546F648007885427ED0F4480570002DF6
:101700007BD000F0B3FA00F0ABFAF149086000F0CA
:1017100027FBF04908600846006800EB501008609D
:10172000ED4B10330FCB8DE80F00EB480FC8FFF7E0
:1017300047FB60B1002000F069FA012000F070FD65
:101740000120FFF765FBFFF715FDFFF779FDE34883
:10175000D0E905230169C0698DE80E000390DF48D8
:101760000FC8FFF72DFB38B100204FF4A0736222A1
:101770000146009000F094FCD94B10330FCB8DE85C
:101780000F00D7480FC8FFF71BFB10B1002000F077
:101790003DFAD44BD3E90421D3E90603CDE9020392
:1017A000CDE90021CF480FC8FFF70AFB00284DD034
:1017B000CD48007818B10020CB49087002E0042021
:1017C000C949087000243FE00020C84901EB4411DA
:1017D0000090498801F11402C44901EB4411097FCA
:1017E000C14B1B781944C8B240F2FF733C2100F092
:1017F000BDFABD48007801E0E4E1A7E190B900201E
:10180000BB4901EB44110090498801F11402B84929
:1018100001EB441101F1080040F2FF739B2100F03D
:1018200055FB0FE00020B14901EB441100904988BD
:1018300001F1140204F10801C8B240F2FF739B21C8
:1018400000F094FA601CC4B2082CBDDBA948D0E9B2
:1018500005230169C0698DE80E000390A5480FC8F3
:10186000FFF7AEFA58B1A448007808B9012000E0AB
:101870000020A1490870FFF77DFCFFF7E1FC9F4BBA
:1018800010330FCB8DE80F009C480FC8FFF798FA74
:1018900048B99B4B10330FCB8DE80F0098480FC809
:1018A000FFF78EFA60B19748007808B9012000E090
:1018B0000020944908700220FFF7AAFAFFF7C0FC45
:1018C000914B10330FCB8DE80F008F480FC8FFF7F7
:1018D00077FA00286CD08C48007F032805DA8A4804
:1018E000007F401C8849087702E00020864908777D
:1018F0008548007F322101EBC000C6B200200221E2
:1019000014236422CDE90010194600F0F9FA40F2E0
:10191000FF700221142306F10A02CDE900101946D6
:10192000304600F0EDFA002440E07748007F6F4930
:1019300001EB4411087700206C4901EB4411009041
:10194000498801F11402694901EB4411097F664B92
:101950001B781944C8B240F2FF733C2100F006FA2C
:10196000624800EB4410007F00F0010028B900201D
:10197000664908556649087005E001206349085525
:10198000FF20634908706148005D0490614800EBE6
:10199000441310330FCB8DE80F005E4800EB441763
:1019A00097E80F00FEF7B0FC601CC4B2082CBCDB4B
:1019B0000024C7E04D4800EB441310330FCB8DE8F3
:1019C0000F004A4800EB441797E80F00FFF7F8F9BB
:1019D000A0B3464800EB4410007F032809DA4348CF
:1019E00000EB4410007F401C404901EB4411087794
:1019F00004E000203D4901EB4411087700203B49F9
:101A000001EB44110090498801F11402374901EBC0
:101A10004411097F344B1B781944C8B240F2FF735C
:101A20003C2100F0A3F9314800EB4410007F00F0A6
:101A3000010020B92046FEF757FC03E017E02046DE
:101A4000FFF78AFB3148005D0490324800EB4413F5
:101A5000D3E90412D3E90603CDE90203CDE900126C
:101A60002C4800EB441797E80F00FEF74DFC29487F
:101A700000EB4413D3E90412D3E90603CDE90203D2
:101A8000CDE90012234800EB441797E80F00FFF759
:101A900097F9D0B1154800EB4410007F02280ADA0C
:101AA0001A48005D18B92046FFF756FB37E020467C
:101AB000FEF71AFC33E00D4800EB4410007F0228CB
:101AC0002AD12046FFF748FB29E039E06C040020CA
:101AD00000000020040000206C0000208C0000208A
:101AE000AC000020EC000020080000206C01002069
:101AF0006C0300204C0100200A0000200C01002093
:101B00002C01002009000020CC0000200C00002047
:101B10000B0000206C0200202046FEF7E5FB2A485F
:101B2000005D0490294800EB441310330FCB8DE87F
:101B30000F00264800EB441797E80F00FEF7E4FB80
:101B4000601CC4B2082CFFF635AF3BE0002437E040
:101B50001E4800EB441310330FCB8DE80F001B48D9
:101B600000EB441797E80F00FFF72AF930B3184845
:101B700000EB4410007F022802D12046FEF7B4FBA0
:101B8000134800EB4410007F032802D12046FFF7E2
:101B9000E3FA0D48005D04900C4800EB4413D3E9D0
:101BA0000421D3E90603CDE90203CDE9002107486A
:101BB00000EB441797E80F00FEF7A6FB601CC4B2C9
:101BC000082CC5DB05B0F0BD0C0000206C02002025
:101BD0006C01002010B50C4801680068401E0A4ADC
:101BE000106079B919201146086000F025F8044604
:101BF000012000F015FBFFF777FDFFF7EBFC204617
:101C000000F00EFB10BD00007404002038B504463F
:101C10004FF4A073F02200210846009400F040FA2F
:101C200038BD00000349086000BF02490968002967
:101C3000FBD1704714000020014800787047000075
:101C4000C804002010B508210448FEF715FD01283E
:101C500001D0012010BD0020FCE700000018014069
:101C60000148006870470000BC04002070B50A25D8
:101C700000240DE0FFF734FC29480068294941F8A9
:101C8000240029480068294941F82400601CC4B296
:101C9000FEF704FD08B1AC42ECDBAC423ED1284675
:101CA000FFF7B6FB224800681D490860214800681C
:101CB0001D490860204800681949096848431F49C0
:101CC0000968194A126801FB02001D4909680844A5
:101CD0001C49096890FBF1F01B4908601B4800682B
:101CE0000F49096848431A4909680F4A126801FBFD
:101CF00002001849096808441249096890FBF1F08C
:101D0000154908601548007840B9084606680E482D
:101D100000680860C6F5A0700B49086070BD00003F
:101D200078040020D80400207C04002068060020ED
:101D30008004002084040020A4040020A8040020C3
:101D4000AC040020A0040020BC040020B00400204B
:101D5000B4040020B8040020C0040020C8040020FF
:101D60000148006870470000C00400202DE9FF4FC3
:101D700081B081468B4692460E9ECDF800B0574604
:101D800000257FE0C9EB09104F4901EB400010F836
:101D90000580002430E008F0800090B12A20FEF792
:101DA000E9FA0098FEF78AFB2B20FEF7E3FA3846A3
:101DB000FEF784FB2C20FEF7DDFA0498FEF77EFB8D
:101DC00013E0012E11D02A20FEF7D4FA0098FEF776
:101DD00075FB2B20FEF7CEFA3846FEF76FFB2C2062
:101DE000FEF7C8FA3046FEF769FB4FEA48604FEA53
:101DF00010687F1E601CC4B2082CCCDB681CC5B206
:101E0000C9EB0910304901EB400010F805800024AF
:101E100030E008F0800090B12A20FEF7ABFA00987D
:101E2000FEF74CFB2B20FEF7A5FA3846FEF746FBE3
:101E30002C20FEF79FFA0498FEF740FB13E0012EDA
:101E400011D02A20FEF796FA0098FEF737FB2B20D8
:101E5000FEF790FA3846FEF731FB2C20FEF78AFA9F
:101E60003046FEF72BFB4FEA48604FEA10687F1EB2
:101E7000601CC4B2032CCCDB0098401C0090574679
:101E8000681CC5B21E2DFFF67DAF012E18D00024B0
:101E900014E02A20FEF76EFA0098FEF70FFB2B20C5
:101EA000FEF768FA3846FEF709FB2C20FEF762FAC7
:101EB0003046FEF703FB7F1E601CC4B20B2CE8DB30
:101EC00005B0BDE8F08F0000862800082DE9F84332
:101ED00004460E4617469846DDF8209000250AE095
:101EE000CDF80090605D43463A46314600F0A4F9D3
:101EF0000836681CC5B2605D0028F1D1BDE8F883E2
:101F00002DE9FF4F8BB08246D346CDF828A00C9820
:101F100009900D9808900D9807900E9806900D98CE
:101F2000824507DDDDF834B00E980990CDF820A089
:101F30000C9806900898A0EB0B04002C00DA644281
:101F400009990698451A002D00DA6D4209990698FC
:101F5000884202DB0120059002E04FF0FF3005903F
:101F6000AC4230DD68000390281B40000290C4EBB7
:101F700045095F46DDF8248021E0002611E007993D
:101F80000A98884205D1B8194146199A00F06CF8B0
:101F900005E008EB06013846199A00F065F8701C58
:101FA000C6B218988642EADB7F1CB9F1000F02DA4C
:101FB0000398814403E0059880440298814408987E
:101FC0008742DADD2FE060000490601B4000019042
:101FD000C5EB44095F46DDF8248021E0002611E0CE
:101FE00007990A98884205D1B8194146199A00F014
:101FF0003BF805E008EB06013846199A00F034F882
:10200000701CC6B218988642EADB05988044B9F184
:10201000000F02DA0498814402E07F1C0198814499
:1020200006988045DAD10FB0BDE8F08F0CA0FEF71E
:10203000B1FB11210B48417311E00A48447B640055
:10204000407B4006010E0748417304F48075407BD5
:1020500040EA252003494873FA20FFF7E3FDECE747
:1020600031720000001801402DE9F04104460D4690
:1020700016462746A8460948007818B9444640F253
:102080003F10C51BA9B2A0B2FEF75EF92C20FEF7E7
:1020900071F93046FEF712FABDE8F081C80400205D
:1020A0002DE9FC5F80460E4614461F46C246B346E5
:1020B00001940097FFF7C0FD40B9D84640F23F10A9
:1020C000A0EB0A00001B86B2009C019F002512E0D5
:1020D000701981B24046FEF737F92C20FEF74AF915
:1020E0004FF0000904E00C98FEF7E8F909F1010946
:1020F000A145F8D36D1CBD42EAD3BDE8FC9F0000AA
:1021000038B50546002401E0601CC4B2285D0028F3
:10211000FAD1009007480368074802680748016839
:10212000284600F0FDF80548006800EBC4000349AC
:10213000086038BDD4040020D0040020CC04002066
:1021400070B504460D460020054908600D2000EBDF
:102150000410044908602846FFF7D2FF70BD000054
:10216000CC040020D00400202DE9F04F87B00646B3
:102170000C4615461F46DDE91089A8F1010000F064
:10218000FF0B1298012823D1AE4202DAB24606951F
:1021900001E0AA460696BC4202DA0594049701E0E3
:1021A0000597049410E00598039007E04A465046CE
:1021B0000399FFF759FF0398401C0390DDE90301E1
:1021C0008842F3D90AF1010A06988245EBD923E047
:1021D000A4EB0B03A4EB0B012A463046CDE90089A2
:1021E000FFF78EFE3B462A4639463046CDE9008948
:1021F000FFF786FE3B46324621463046CDE9008950
:10220000FFF77EFEA5EB0B02A5EB0B003B4621463C
:10221000CDE90089FFF774FE07B0BDE8F08F00003C
:102220000149087070470000C80400200149086097
:1022300070470000D40400202DE9FF4F81B006460E
:102240008B4692460E9FCDF800B0D046A6F12000F6
:10225000C6B200254DE0C6EBC600304901EB400098
:1022600010F80590002417E009F0800028B14146DD
:10227000049A0098FFF7F8FE06E0012F04D03A46D2
:1022800041460098FFF7F0FE4FEA49604FEA1069B7
:10229000A8F10108601CC4B2082CE5DB681CC5B2BB
:1022A000C6EBC6001D4901EB400010F80590002464
:1022B00017E009F0800028B14146049A0098FFF722
:1022C000D3FE06E0012F04D03A4641460098FFF7BE
:1022D000CBFE4FEA49604FEA1069A8F10108601C83
:1022E000C4B2032CE5DB0098401C0090D046681C6B
:1022F000C5B20E2DAFDB012F0CD0002408E03A460A
:1023000041460098FFF7B0FEA8F10108601CC4B276
:102310000B2CF4DB05B0BDE8F08F0000542300085F
:102320002DE9F84304460E4617469846DDF82090FE
:1023300000250AE0CDF80090605D43463A463146FC
:10234000FFF77AFF0836681CC5B2605D0028F1D13E
:10235000BDE8F8830000000000000000000000005D
:10236000001F000007C0DFE0DFE007C00000001F23
:10237000000000E000E0000000E000E0001F0000BE
:102380001B007FC01B007FC01B00001F13002780A5
:1023900024807FC024803880191F308019402D4050
:1023A000568053002180001F38007D8047C05E406A
:1023B0007BC02180581F0000000000E000E000000A
:1023C0000000001F000000003F807FC0C060802030
:1023D000001F00008020C0607FC03F800000001F01
:1023E000000024803F800E003F802480001F0400F6
:1023F00004001F001F0004000400001F00008000F4
:10240000E000600000000000001F04000400040061
:10241000040004000400001F00000000C000C00011
:1024200000000000001FC000F0003C000F0003C0CF
:1024300000E0003F7FC0FFE0802080208020FFE0A0
:102440007FDF0000808080C0FFE0FFE08000001F91
:10245000E0C0F0E098208C20842087E083DF60C01B
:10246000E0E0842084208420FFE07BDF38003E0011
:10247000278021E0FFE0FFE0201F83E083E082204F
:102480008220C2207E203C3F7F00FFC082608220ED
:102490008220FE207C3F00200020E020FC201F2026
:1024A00003E000FF7BC0FFE0862086208C20FFE059
:1024B0007BDF03C087E08420C42064203FE01FDF6F
:1024C000000000003180318031800000001F0000DA
:1024D0000000B180F18071800000001F04000E0038
:1024E0001B00318060C0C060803F0A000A000A0003
:1024F0000A000A000A000A1F8020C06060C0318004
:102500001B000E00041F01C001E00020D820DC20C9
:1025100007E003DF7F4083208320FF208060FFE00F
:102520007FDFFF00FF8008C0086008C0FF80FF1F3A
:10253000FFE0FFE0842084208420FFE07BDF7FC079
:10254000FFE0802080208020E0E060DFFFE0FFE00F
:1025500080208020C0607FC03F9FFFE0FFE084209C
:10256000842084208420803FFFE0FFE004200420BA
:1025700004200420003F7FC0FFE0802080208820CE
:10258000F8E0F8DFFFE0FFE0040004000400FFE0F3
:10259000FFFF00008020FFE0FFE080200000001F20
:1025A0006000E000800080008000FFE07FFFFFE02F
:1025B000FFE004001F007BC0E0E0803FFFE0FFE0A1
:1025C0008000800080008000801FFFE0FFE000802E
:1025D00007000080FFE0FFFFFFE0FFE003800E0048
:1025E0003800FFE0FFFF7FC0FFE0802080208020D8
:1025F000FFE07FDFFFE0FFE004200420042007E08D
:1026000003DF7FC0FFE09020B020E0207FE0FFDF0D
:10261000FFE0FFE0042004200C20FFE0F3DF43C0D4
:10262000C7E0862084208C20FC60785F002000209A
:10263000FFE0FFE000200020001F7FE0FFE08000BF
:1026400080008000FFE07FFF1FE03FE06000C000EF
:1026500060003FE01FFF1FE0FFE0E0001C00E00023
:10266000FFE01FFFC060F1E03F800E003F80F1E01F
:10267000C07F03E007E0FC00FC0007E003E0001F70
:10268000C020F020BC208F2083A080E0807F00004D
:10269000FFE0FFE0802080208020001F002000E07D
:1026A00003C00F003C00F000C01F0000802080200D
:1026B0008020FFE0FFE0001F008000C0006000609D
:1026C00000C00080001F800080008000800080002B
:1026D0008000801F000000000020006000E00080FB
:1026E000001F7000F900890089008900FF00FE1FAB
:1026F000FFE0FFE0810081008100FF007E1F7E007F
:10270000FF00810081008100C300421F7E00FF00A6
:10271000810081008100FFE0FFFF7E00FF0091004B
:10272000910091009F005E1F0400FFC0FFE00420A5
:1027300004200420001F9E00BF00A100A100A100F2
:10274000FF007F1FFFE0FFE0010001000100FF002C
:10275000FE1F81008100FF60FF6080008000001F7D
:102760008000810081008100FF607F60001FFFE02A
:10277000FFE018003C006600C300C11F80208020DD
:10278000FFE0FFE080008000001FFF00FF0001006D
:102790003F000100FF00FE1FFF00FF0001000100DD
:1027A0000100FF00FE1F7E00FF008100810081000C
:1027B000FF007E1FFF00FF002100210021003F00DD
:1027C0001E1F1E003F00210021002100FF00FE1FF0
:1027D0000100FF00FF00040002000300031F8E0041
:1027E0009F00990099009900F900711F01000100F4
:1027F0007FC0FFC081008100811F7F00FF0080003B
:1028000080008000FF00FF1F1F003F006000C0002D
:1028100060003F001F1F3F00FF00C0003C00C000E1
:10282000FF003F1FE300F7001C001C001C00F70026
:10283000E31F8F009F00900090009000FF007F1F1B
:10284000C100E100B10099008D008700831F0000E6
:1028500004007FC0E0E080208000001F0000000036
:10286000FFE0FFE000000000001F00008020E0E02B
:102870007FC004000000005F00600020006000C016
:10288000008000C0005FC000C000C000C000C000E9
:10289000C000C000FFFF007F007F007F007F007F3F
:1028A000007F007F007F007F007F007F007F007F30
:1028B000007FFFFFC000C000C000C000C000C0001B
:1028C000C01FC000C000C000C000FFFF003F003FAD
:1028D000003F003F003FFFFFC000C000C000C01F1E
:1028E000007F007F007F007FFFFF8000800080006E
:1028F00080008000FFFF007F007F007F007F07E0F7
:1029000007E00600060006000600060006000600B6
:102910000600060006000600FE00FE00FE00FE00A7
:102920000600060006000600060006000600060077
:1029300006000600060007E007E01F001F00110068
:1029400011001100110011001100110011001100FF
:1029500011001100F1E0F1E0F1E0F1E011001100EF
:1029600011001100110011001100110011001100DF
:1029700011001F001F0000000000000000001F00E9
:1029800031803180318031803180318031803180BF
:1029900031801F00000000000000000006000E0053
:1029A0001E000600060006000600060006000600DF
:1029B0001F0000000000000000001F0031083180EF
:1029C0000180018007000C001800300030003F80BB
:1029D00000000000000000001F003108318001806D
:1029E00001800F0001800180318031801F000000D4
:1029F000000000000000070007000F000F001B0090
:102A00001B00330033003F80030003000000000080
:102A1000000000003F803000300030003F000180A7
:102A200001800180018003003E00000000000000E2
:102A300000000F801800100030003F00318031800E
:102A40003180318031801F00000000000000000054
:102A50003F8001800180030003000600060006009D
:102A60000C000C000C0000000E003F807BC060C01A
:102A7000E000C000C000C3E0E1E061E07BE03F4077
:102A80000E000000A42A000800000020D804000066
:102A90008C010008F42B0008D804002098090000DD
:102AA000E8010008B15BFF0101512A2001165431F1
:102AB0003233342F496E2D3E5030101C4F75740B3D
:102AC0001231190819072912491C211A19321A1E24
:102AD0003A32FA32D632B2328E326A32467222122A
:102AE00028D23C33E007220449750A1D82200A1BC4
:102AF000FA203A2D04198A091520328C0A1923204C
:102B00000A1DB9400A1D5F201A969E12234A2CAB5B
:102B10000913A0141E0128121AFC53573020413A01
:102B20002DE029200A1531205AD6200A1532205AC4
:102B3000B2200A1533205A8E200A1534205A6A20F2
:102B40000A1535205A46200A1536205A22200A1323
:102B5000372012641C1E012D20A3543029206B0342
:102B60001C201AFA4419200A1631204AD6200A14C9
:102B7000322012504AB2200A1633204A8E200A16FA
:102B800034204A6A200A1635204A46200A16362082
:102B90004A22200A14372012B92B1E01208C203023
:102BA00020201AFF206A84203AFA400B1620312098
:102BB0004AD6200A1632204AB2200A1633204A8EFC
:102BC000200A1634204A6A200A1635204A46200A6E
:102BD0001636204A22200A14372041190F011532D7
:102BE0001832D73278293E32A0032A1F01A92B1AA6
:042BF000FF6500007D
:040000050800022DC0
:00000001FF
